:100000000C9455000C9467000C9467000C946700E6
:100010000C9467000C9467000C9467000C946700C4
:100020000C9467000C9467000C9467000C946700B4
:100030000C9467000C9467000C9467000C946700A4
:100040000C9467000C9467000C9467000C94670094
:100050000C9467000C9462010C9467000C94670088
:100060000C9467000C946700C003B803B003A703A7
:100070009D03920387037B036E03610352034303D3
:10008000330322031103FF02EC02D902C502B102BD
:100090009D02880273025E02490234021F020A02B4
:1000A000F601E201CE01BA01A70111241FBECFEF74
:1000B000D8E0DEBFCDBF21E0A0E0B1E001C01D92DD
:1000C000A630B207E1F70E9497010C9477030C94D5
:1000D0000000811106C08BB1807D8BB988B184731B
:1000E0000FC0813031F48BB180788BB988B18470C6
:1000F00007C0823039F48BB1807B8BB988B18073B3
:1001000088B90895833031F48BB1807B8BB988B185
:100110008471F6CF843019F48BB1807CF7CF8530B1
:1001200019F48BB18077F2CF863019F48BB18077D8
:10013000D4CF873019F48BB1807AD7CF883019F4B7
:100140008BB1807FCACF8930E1F68BB1807FDECF63
:1001500015B818B81BB80895CF9384E085B980917D
:100160000501811102C080E18BB90E94A800C2E0A4
:10017000CBB9809104010E9469000E94A800C5B912
:10018000809103010E946900CF910C94A800CF9345
:10019000DF93E8EAF0E0259134912817390738F029
:1001A0008217930708F069C0C4EDDEEF23C0E8E6CC
:1001B000F0E0259134918217930708F05AC0C0E20D
:1001C00030E0632F70E04C2F50E0FA01E61BF70B94
:1001D0003297A4F4FB01EE0FFF1FE859FF4FA591E2
:1001E000B4918A179B07E0F024E1329FE0011124CB
:1001F000CC52D140CE01DF91CF910895460F571FC9
:1002000055954795FA01EE0FFF1FE859FF4FA5914D
:10021000B491A817B90710F0342FD3CFC42FD3CF80
:10022000FA01EE0FFF1FE859FF4F65917491AD0180
:10023000461B570B24E1C29FE0011124CC52D14050
:1002400041155105B9F29C01261B370BA4E1B0E022
:100250000E9408029A0136952795620F731F811D2F
:10026000911D9A0150E040E00E94E901C21BD30BAE
:10027000C1CF2817390708F097CFC4E5D1E0BACF2E
:10028000ECE7F0E0808180648083808181608083FE
:10029000EAE7F0E0808187608083808188608083E6
:1002A000808180688083089580917A008064809343
:1002B0007A0080917A0086FDFCCF90917900809140
:1002C000780008951F920F920FB60F9211242F936A
:1002D0003F934F935F936F937F938F939F93AF93CE
:1002E000BF93EF93FF930E945401BC0190E080E024
:1002F0000E947C0220E030E040EA5BE30E94E202E0
:100300000E944D027093010160930001FF91EF91F3
:10031000BF91AF919F918F917F916F915F914F911D
:100320003F912F910F900FBE0F901F90189587E06F
:1003300084B915B884EF8AB91BB88CE387B918B8AB
:100340000E9440017894CAE0D0E084E6E82EF12CC7
:10035000DD24D39480910001909101010E94C70097
:100360009C01BE010E94D5018B01CB01BE010E9400
:10037000D50180930301C901B7010E94D501CB01CA
:10038000BE010E94D5018093040117FD09C010929F
:1003900005010E94AC000B3011052CF42A9ADACF2B
:1003A000D0920501F6CF2A98D5CF97FB072E16F4E9
:1003B000009407D077FD09D00E94170207FC05D0F2
:1003C0003EF4909581959F4F0895709561957F4F6C
:1003D0000895052E97FB1EF400940E94000257FD1D
:1003E00007D00E942B0207FC03D04EF40C940002AD
:1003F00050954095309521953F4F4F4F5F4F089551
:1004000090958095709561957F4F8F4F9F4F089580
:10041000A29FB001B39FC001A39F700D811D112445
:10042000911DB29F700D811D1124911D0895AA1B6D
:10043000BB1B51E107C0AA1FBB1FA617B70710F0CF
:10044000A61BB70B881F991F5A95A9F78095909501
:10045000BC01CD010895A1E21A2EAA1BBB1BFD0110
:100460000DC0AA1FBB1FEE1FFF1FA217B307E40793
:10047000F50720F0A21BB30BE40BF50B661F771FEB
:10048000881F991F1A9469F76095709580959095CB
:100490009B01AC01BD01CF0108950E94C10288F00B
:1004A0009F5798F0B92F9927B751B0F0E1F0660F38
:1004B000771F881F991F1AF0BA95C9F714C0B13079
:1004C00091F00E94DB02B1E008950C94DB02672FEB
:1004D000782F8827B85F39F0B93FCCF386957795A8
:1004E0006795B395D9F73EF4909580957095619591
:1004F0007F4F8F4F9F4F0895E89409C097FB3EF4BC
:1005000090958095709561957F4F8F4F9F4F992360
:10051000A9F0F92F96E9BB279395F69587957795DE
:100520006795B795F111F8CFFAF4BB0F11F460FF9E
:100530001BC06F5F7F4F8F4F9F4F16C0882311F0F6
:1005400096E911C0772321F09EE8872F762F05C00A
:10055000662371F096E8862F70E060E02AF09A95A5
:10056000660F771F881FDAF7880F9695879597F99A
:10057000089557FD9058440F551F59F05F3F71F093
:100580004795880F97FB991F61F09F3F79F08795FA
:100590000895121613061406551FF2CF4695F1DF83
:1005A00008C0161617061806991FF1CF8695710513
:1005B000610508940895E894BB2766277727CB0147
:1005C00097F908950E94F5020C9466030E9458035F
:1005D00038F00E945F0320F0952311F00C944F0334
:1005E0000C94550311240C94DC020E94B90270F3A0
:1005F000959FC1F3950F50E0551F629FF001729FC8
:10060000BB27F00DB11D639FAA27F00DB11DAA1FD6
:10061000649F6627B00DA11D661F829F2227B00D23
:10062000A11D621F739FB00DA11D621F839FA00DAE
:10063000611D221F749F3327A00D611D231F849FFE
:10064000600D211D822F762F6A2F11249F57504055
:100650009AF0F1F088234AF0EE0FFF1FBB1F661FD0
:10066000771F881F91505040A9F79E3F510580F099
:100670000C944F030C94DC025F3FE4F3983ED4F3F8
:10068000869577956795B795F795E7959F5FC1F73D
:10069000FE2B880F911D9695879597F9089597F9E8
:1006A0009F6780E870E060E008959FEF80EC089518
:1006B00000240A9416161706180609060895002441
:1006C0000A9412161306140605060895092E0394BB
:1006D000000C11F4882352F0BB0F40F4BF2B11F42F
:1006E00060FF04C06F5F7F4F8F4F9F4F0895F89456
:0206F000FFCF3A
:00000001FF
